{
  "contractName": "CrowdFundingWithDeadline",
  "abi": [
    {
      "constant": true,
      "inputs": [],
      "name": "name",
      "outputs": [
        {
          "name": "",
          "type": "string"
        }
      ],
      "payable": false,
      "stateMutability": "view",
      "type": "function"
    },
    {
      "constant": true,
      "inputs": [
        {
          "name": "",
          "type": "address"
        }
      ],
      "name": "amounts",
      "outputs": [
        {
          "name": "",
          "type": "uint256"
        }
      ],
      "payable": false,
      "stateMutability": "view",
      "type": "function"
    },
    {
      "constant": true,
      "inputs": [],
      "name": "fundingDeadline",
      "outputs": [
        {
          "name": "",
          "type": "uint256"
        }
      ],
      "payable": false,
      "stateMutability": "view",
      "type": "function"
    },
    {
      "constant": true,
      "inputs": [],
      "name": "collected",
      "outputs": [
        {
          "name": "",
          "type": "bool"
        }
      ],
      "payable": false,
      "stateMutability": "view",
      "type": "function"
    },
    {
      "constant": true,
      "inputs": [],
      "name": "targetAmount",
      "outputs": [
        {
          "name": "",
          "type": "uint256"
        }
      ],
      "payable": false,
      "stateMutability": "view",
      "type": "function"
    },
    {
      "constant": true,
      "inputs": [],
      "name": "state",
      "outputs": [
        {
          "name": "",
          "type": "uint8"
        }
      ],
      "payable": false,
      "stateMutability": "view",
      "type": "function"
    },
    {
      "constant": true,
      "inputs": [],
      "name": "beneficiaryAddress",
      "outputs": [
        {
          "name": "",
          "type": "address"
        }
      ],
      "payable": false,
      "stateMutability": "view",
      "type": "function"
    },
    {
      "constant": true,
      "inputs": [],
      "name": "totalCollected",
      "outputs": [
        {
          "name": "",
          "type": "uint256"
        }
      ],
      "payable": false,
      "stateMutability": "view",
      "type": "function"
    },
    {
      "inputs": [
        {
          "name": "contractName",
          "type": "string"
        },
        {
          "name": "targetAmountInEth",
          "type": "uint256"
        },
        {
          "name": "DurationInMin",
          "type": "uint256"
        },
        {
          "name": "beneficiary",
          "type": "address"
        }
      ],
      "payable": false,
      "stateMutability": "nonpayable",
      "type": "constructor"
    },
    {
      "anonymous": false,
      "inputs": [
        {
          "indexed": false,
          "name": "addr",
          "type": "address"
        },
        {
          "indexed": false,
          "name": "totalCollect",
          "type": "uint256"
        },
        {
          "indexed": false,
          "name": "succeeded",
          "type": "bool"
        }
      ],
      "name": "CampainFinished",
      "type": "event"
    },
    {
      "constant": false,
      "inputs": [],
      "name": "contribute",
      "outputs": [],
      "payable": true,
      "stateMutability": "payable",
      "type": "function"
    },
    {
      "constant": false,
      "inputs": [],
      "name": "collect",
      "outputs": [],
      "payable": false,
      "stateMutability": "nonpayable",
      "type": "function"
    },
    {
      "constant": false,
      "inputs": [],
      "name": "withdraw",
      "outputs": [],
      "payable": false,
      "stateMutability": "nonpayable",
      "type": "function"
    },
    {
      "constant": false,
      "inputs": [],
      "name": "finishCrowdFunding",
      "outputs": [],
      "payable": false,
      "stateMutability": "nonpayable",
      "type": "function"
    }
  ],
  "bytecode": "0x608060405234801561001057600080fd5b50604051610ce1380380610ce183398101806040528101908080518201929190602001805190602001909291908051906020019092919080519060200190929190505050836000908051906020019061006a929190610114565b50670de0b6b3a76400008302600181905550603c820261009761010c640100000000026401000000009004565b0160028190555080600360006101000a81548173ffffffffffffffffffffffffffffffffffffffff021916908373ffffffffffffffffffffffffffffffffffffffff1602179055506000600760006101000a81548160ff021916908360038111156100fe57fe5b0217905550505050506101b9565b600042905090565b828054600181600116156101000203166002900490600052602060002090601f016020900481019282601f1061015557805160ff1916838001178555610183565b82800160010185558215610183579182015b82811115610182578251825591602001919060010190610167565b5b5090506101909190610194565b5090565b6101b691905b808211156101b257600081600090555060010161019a565b5090565b90565b610b19806101c86000396000f3006080604052600436106100ba576000357c0100000000000000000000000000000000000000000000000000000000900463ffffffff16806306fdde03146100bf578063083dca111461014f5780633ccfd60b1461016657806355a3b2c11461017d578063796b23bb146101d457806384bcefd4146101ff578063953b8fb81461022e578063c19d93fb14610259578063d7bb99ba14610292578063d9c4870e1461029c578063e29eb836146102f3578063e52253811461031e575b600080fd5b3480156100cb57600080fd5b506100d4610335565b6040518080602001828103825283818151815260200191508051906020019080838360005b838110156101145780820151818401526020810190506100f9565b50505050905090810190601f1680156101415780820380516001836020036101000a031916815260200191505b509250505060405180910390f35b34801561015b57600080fd5b506101646103d3565b005b34801561017257600080fd5b5061017b610573565b005b34801561018957600080fd5b506101be600480360381019080803573ffffffffffffffffffffffffffffffffffffffff1690602001909291905050506107d5565b6040518082815260200191505060405180910390f35b3480156101e057600080fd5b506101e96107ed565b6040518082815260200191505060405180910390f35b34801561020b57600080fd5b506102146107f3565b604051808215151515815260200191505060405180910390f35b34801561023a57600080fd5b50610243610806565b6040518082815260200191505060405180910390f35b34801561026557600080fd5b5061026e61080c565b6040518082600381111561027e57fe5b60ff16815260200191505060405180910390f35b61029a61081f565b005b3480156102a857600080fd5b506102b1610959565b604051808273ffffffffffffffffffffffffffffffffffffffff1673ffffffffffffffffffffffffffffffffffffffff16815260200191505060405180910390f35b3480156102ff57600080fd5b5061030861097f565b6040518082815260200191505060405180910390f35b34801561032a57600080fd5b50610333610985565b005b60008054600181600116156101000203166002900480601f0160208091040260200160405190810160405280929190818152602001828054600181600116156101000203166002900480156103cb5780601f106103a0576101008083540402835291602001916103cb565b820191906000526020600020905b8154815290600101906020018083116103ae57829003601f168201915b505050505081565b60008060038111156103e157fe5b600760009054906101000a900460ff1660038111156103fc57fe5b141515610471576040517f08c379a000000000000000000000000000000000000000000000000000000000815260040180806020018281038252600d8152602001807f696e76616c69642073746174650000000000000000000000000000000000000081525060200191505060405180910390fd5b610479610ad2565b15151561048557600080fd5b600560009054906101000a900460ff16156104c3576001600760006101000a81548160ff021916908360038111156104b957fe5b02179055506104e8565b6002600760006101000a81548160ff021916908360038111156104e257fe5b02179055505b7ff5b1621c53519f0fded7e11b111c2712371489222a12cc747b6eb6f5f2c543ae30600654600560009054906101000a900460ff16604051808473ffffffffffffffffffffffffffffffffffffffff1673ffffffffffffffffffffffffffffffffffffffff16815260200183815260200182151515158152602001935050505060405180910390a150565b6000600180600381111561058357fe5b600760009054906101000a900460ff16600381111561059e57fe5b141515610613576040517f08c379a000000000000000000000000000000000000000000000000000000000815260040180806020018281038252600d8152602001807f696e76616c69642073746174650000000000000000000000000000000000000081525060200191505060405180910390fd5b6000600460003373ffffffffffffffffffffffffffffffffffffffff1673ffffffffffffffffffffffffffffffffffffffff168152602001908152602001600020541115156106ca576040517f08c379a00000000000000000000000000000000000000000000000000000000081526004018080602001828103825260178152602001807f4e6f7468696e672077617320636f6e747269627574656400000000000000000081525060200191505060405180910390fd5b600460003373ffffffffffffffffffffffffffffffffffffffff1673ffffffffffffffffffffffffffffffffffffffff1681526020019081526020016000205491506000600460003373ffffffffffffffffffffffffffffffffffffffff1673ffffffffffffffffffffffffffffffffffffffff168152602001908152602001600020819055503373ffffffffffffffffffffffffffffffffffffffff166108fc839081150290604051600060405180830381858888f1935050505015156107d15781600460003373ffffffffffffffffffffffffffffffffffffffff1673ffffffffffffffffffffffffffffffffffffffff168152602001908152602001600020819055505b5050565b60046020528060005260406000206000915090505481565b60025481565b600560009054906101000a900460ff1681565b60015481565b600760009054906101000a900460ff1681565b600080600381111561082d57fe5b600760009054906101000a900460ff16600381111561084857fe5b1415156108bd576040517f08c379a000000000000000000000000000000000000000000000000000000000815260040180806020018281038252600d8152602001807f696e76616c69642073746174650000000000000000000000000000000000000081525060200191505060405180910390fd5b6108c5610ad2565b15156108d057600080fd5b34600460003373ffffffffffffffffffffffffffffffffffffffff1673ffffffffffffffffffffffffffffffffffffffff1681526020019081526020016000206000828254019250508190555034600660008282540192505081905550600154600654101515610956576001600560006101000a81548160ff0219169083151502179055505b50565b600360009054906101000a900473ffffffffffffffffffffffffffffffffffffffff1681565b60065481565b600280600381111561099357fe5b600760009054906101000a900460ff1660038111156109ae57fe5b141515610a23576040517f08c379a000000000000000000000000000000000000000000000000000000000815260040180806020018281038252600d8152602001807f696e76616c69642073746174650000000000000000000000000000000000000081525060200191505060405180910390fd5b600360009054906101000a900473ffffffffffffffffffffffffffffffffffffffff1673ffffffffffffffffffffffffffffffffffffffff166108fc6006549081150290604051600060405180830381858888f1935050505015610aaa576003600760006101000a81548160ff02191690836003811115610aa057fe5b0217905550610acf565b6001600760006101000a81548160ff02191690836003811115610ac957fe5b02179055505b50565b6000600254610adf610ae5565b10905090565b6000429050905600a165627a7a723058204dc789c7df43c517b89e4446dd5381af8d9f8fdd83a45c969396603240cbfb770029",
  "source": "// SPDX-License-Identifier: MIT\n\npragma solidity >=0.4.22 <0.9.0;\n\ncontract CrowdFundingWithDeadline {\n    enum State {Ongoing, Failed, Succeeded, PaidOut}\n\n    string public name;\n    uint public targetAmount;\n    uint public fundingDeadline;\n    address public beneficiaryAddress;\n    mapping(address => uint) public amounts;\n    bool public collected;\n    uint public totalCollected;\n\n    State public state;\n\n    modifier inState(State expectedState){\n        require(state == expectedState, \"invalid state\");\n        _;\n    }\n\n    event CampainFinished (\n        address addr,\n        uint totalCollect,\n        bool succeeded\n    );\n\n    constructor(string memory contractName, uint  targetAmountInEth, uint  DurationInMin, address beneficiary)public{\n        name = contractName;\n        targetAmount= targetAmountInEth * 1 ether; //converts ether to wei\n        fundingDeadline = currentTime() + DurationInMin * 1 minutes;\n        beneficiaryAddress = beneficiary;\n        state = State.Ongoing;\n    }\n\n    function contribute () public payable inState(State.Ongoing){\n        require(beforeDeadline());\n        \n        amounts[msg.sender] += msg.value;\n        totalCollected += msg.value;\n\n        if(totalCollected >= targetAmount){\n            collected = true;\n        }\n\n    }\n\n    function collect() public inState(State.Succeeded){\n        if(beneficiaryAddress.send(totalCollected)){\n            state = State.PaidOut;\n        }else{\n            state = State.Failed;\n        }\n    }\n\n    function withdraw() public  inState(State.Failed){\n        require(amounts[msg.sender] > 0, \"Nothing was contributed\");\n        uint contributed = amounts[msg.sender];\n        amounts[msg.sender] = 0;\n\n        if(!msg.sender.send(contributed)){\n            amounts[msg.sender] = contributed;\n        }\n    }\n\n    function finishCrowdFunding() public inState(State.Ongoing){\n        require (!beforeDeadline());\n        if(collected){\n            state = State.Failed;\n        }else {\n            state = State.Succeeded;\n        }\n\n        emit CampainFinished(this, totalCollected, collected);\n    }\n\n    function beforeDeadline() internal view returns(bool){\n        return currentTime() < fundingDeadline;\n    }\n\n    function currentTime() internal view  returns(uint){\n        return block.timestamp;\n    }\n}",
  "sourcePath": "/home/sarzy/Documents/crowdfunding/contracts/CrowdFundingWithDeadline.sol",
  "compiler": {
    "name": "solc",
    "version": "0.4.25+commit.59dbf8f1.Emscripten.clang"
  },
  "schemaVersion": "2.0.2",
  "updatedAt": "2021-04-10T10:48:55.818Z"
}